S0180000437573746F6D50726F6A656374562E332E7372656303
S113000045C0000062C0000060C000005EC0000087
S11300105CC000005AC0000058C0000056C0000078
S113002054C0000052C0000050C000004EC0000088
S11300304CC0000038C1000048C0000046C00000A9
S113004044C0000042C0000040C000003EC00000A8
S11300503CC000003AC0000038C0000036C00000B8
S113006034C0000032C0000030C000002EC00000C8
S11300702CC000002AC0000028C0000026C00000D8
S113008024C0000022C0000020C0000011241FBEB4
S1130090CFEFD0E4DEBFCDBF15E0A0E0B1E0E8EFE4
S11300A0F1E200E00BBF02C007900D92AE32B1073F
S11300B0D9F725E0AEE2B5E001C01D92A03DB2073C
S11300C0E1F70E94DF0E0C94FA109ACF029708F021
S11300D098C080919505811107C081E080939505B2
S11300E085E080937C0005C01092950586E080939E
S11300F07C0080917800909179009093980580938A
S1130100970580939605992720919305309194053E
S113011082179307DCF4809195058130C1F58091B5
S11301209005811107C080918F05811103C081E082
S113013080938D0581E0809390058091C305817043
S11301408E5F8093C30581E090E0089580919505CA
S11301508130B1F580919005813079F480918E05DC
S1130160813059F410928E058091910590919205F9
S11301700196909392058093910510929005809139
S1130180C30581708093C30581E090E008958111D7
S11301903BC080919005811107C080918F0581112A
S11301A003C081E080938E0581E080938F05809168
S11301B0C30582708F5F8093C30581E090E008954A
S11301C080919505811123C080918F05813079F448
S11301D080918D05813059F410928D05809191059F
S11301E090919205019790939205809391051092B6
S11301F08F058091C30582708093C30581E090E0F0
S1130200089580E090E0089581E090E0089581E011
S113021090E00895029778F484E080937C008091C4
S113022078009091790099279093A2058093A10575
S113023081E090E0089580E090E0089560936D017E
S113024070936E0180936F01909370016093B10578
S11302507093B2058093B3059093B40508958BE031
S1130260809381008DE790E09093890080938800CB
S113027082E080936F001092850010928400809138
S11302806D0190916E01A0916F01B0917001809306
S1130290B1059093B205A093B305B093B4058FB79D
S11302A080688FBF08951F920F920FB60F9211248A
S11302B08F939F93AF93BF938091B1059091B205B3
S11302C0A091B305B091B4050197A109B109809338
S11302D0B1059093B205A093B305B093B405892BEF
S11302E08A2B8B2B99F481E08093B50580916D0165
S11302F090916E01A0916F01B09170018093B1054E
S11303009093B205A093B305B093B405BF91AF9198
S11303109F918F910F900FBE0F901F9018951816F4
S113032019065CF00895000021503109E1F74F5F90
S11303305F4F8417950719F4089540E050E027E0D3
S113034033E0F1CF12988BB9139A0000139882E02E
S113035090E0E5CF089581E0F5CF0895813118F458
S11303608158F0CF08958155EDCF089584E690E04B
S1130370D6DF88E3E7DF86E0E5DF8FE0E3DF81E0D7
S1130380E1DF8AE090E0CBCF0895129A8BB9139AFB
S11303900000139881E090E0C2CF08950F931F935B
S11303A0CF93DF93182FEB01D6DF8881882351F098
S11303B001E0010F812FD2DF8991E7DF102F8881BF
S11303C08111F6CFDF91CF911F910F9108958FEE98
S11303D088B90000309B29C0319B29C0329B29C0B9
S11303E0339B29C08FED88B90000309B26C0319B18
S11303F026C0329B26C0339B26C08FEB88B90000F1
S1130400309B23C0319B23C0329B23C0339B23C02A
S11304108FE788B90000309B20C0319B20C0329BFD
S113042020C0339B20C080E0089581E3089584E3D5
S1130430089587E308958AE2089582E3089585E3A1
S1130440089588E3089580E3089583E3089586E397
S1130450089589E3089583E2089581E4089582E488
S1130460089583E4089584E40895029730F4AFDF97
S11304708093C90581E090E0089580E090E00895BC
S1130480EAE7F0E0108210927C008081806E808325
S11304900895ACE7B0E01C92EAE7F0E010828C919A
S11304A080648C938081876880830895ECE7F0E012
S11304B09081987F8770892B8083EAE7F0E08081C0
S11304C080648083808186FDFDCF80917800909147
S11304D079000895029708F050C080E0E7DF99277B
S11304E09093B9058093B80581E0E0DF9927909354
S11304F09E0580939D052091B8053091B905293C4E
S1130500310558F0AC014C5151094C3A5105A0F455
S113051010929C0581E090E008952B31310560F440
S1130520AC014C5151094C3A510530F481E08093AF
S11305309C0581E090E00895893C910558F02F5185
S113054031092737310598F482E080939C0581E0D6
S113055090E008954B9758F42F513109273731050E
S113056030F483E080939C0581E090E0089585E079
S113057080939C0581E090E0089580E090E00895E8
S113058020E030E058E0E82FF0E055B945B1BF0174
S1130590022E02C0759567950A94E2F7962F917022
S11305A0942B95B9299A2F5F3F4F2830310569F76D
S11305B02A9A15B8089540E050E0E0E8682F70E00A
S11305C0E5B995B19B01042E02C0359527950A948F
S11305D0E2F72170332722953295307F3227207F2E
S11305E03227292B25B92D9A4F5F5F4F483051058B
S11305F039F72E9A15B80895009719F00197B1F0BC
S11306001FC020918405213009F0E3C010928405B5
S113061040DF109281051092800510927F0588ECCE
S113062090E0909305018093040110C031E020E034
S113063080918405813009F430E0832F922F02C029
S113064080E090E08130910509F0C3C080B18095CD
S1130650807880937B05803881F480918105833094
S113066031F481E080937E0580937C05B0C081E005
S113067080937C0580937D05AAC080917C058130A0
S113068009F4A2C0809104019091050199230CF40E
S113069057C080918105811111C0E0917F05F091CF
S11306A08005EB59FE4F80816BDFE0917F05F0916F
S11306B08005E35AFE4F80817EDF38C0813089F4A3
S11306C0E0917F05F0918005EB5AFE4F808158DF61
S11306D0E0917F05F0918005E35BFE4F80816BDF45
S11306E025C0823089F4E0917F05F0918005EB5BB1
S11306F0FE4F808145DFE0917F05F0918005E35C4A
S1130700FE4F808158DF12C0833081F4E0917F0571
S1130710F0918005EB5CFE4F808132DFE0917F0534
S1130720F0918005E35DFE4F808145DF80910401F7
S113073090910501019790930501809304012EC0C7
S113074080918105833049F488EC90E09093050111
S1130750809304011092810521C0823051F488EC09
S113076090E0909305018093040183E080938105D8
S113077015C0813051F488EC90E09093050180938A
S1130780040182E08093810509C022E330E03093C4
S11307900501209304018F5F8093810580917F057B
S11307A090918005873091053CF01092800510925D
S11307B07F0581E090E008950196909380058093F1
S11307C07F0581E090E0089581E090E0089581E064
S11307D090E00895EBE0F1E023E131E08FEF8193C5
S11307E0E217F307E1F708958091CA059091CB05CC
S11307F08730910551F4E091CC05F0E0E55FFE4FC0
S1130800808183708458808361C08630910551F45F
S1130810E091CC05F0E0E55FFE4F80818370845465
S1130820808354C08530910551F4E091CC05F0E00B
S1130830E55FFE4F808183708452808347C084309B
S1130840910551F4E091CC05F0E0E55FFE4F808125
S11308508370845180833AC08330910551F4E091D0
S1130860CC05F0E0E55FFE4F808183708C5080837F
S11308702DC08230910551F4E091CC05F0E0E55FA4
S1130880FE4F808183708850808320C08130910521
S113089051F4E091CC05F0E0E55FFE4F808181707A
S11308A08450808313C0009741F4E091CC05F0E0BC
S11308B0E55FFE4F8EEF808309C0019639F4E09125
S11308C0CC05F0E0E55FFE4F8FEF80838091C60595
S11308D09091C7058730910551F4E091C805F0E087
S11308E0E55FFE4F8081837084588083089586304D
S11308F0910551F4E091C805F0E0E55FFE4F808179
S113090083708454808308958530910551F4E09177
S1130910C805F0E0E55FFE4F8081837084528083D8
S113092008958430910551F4E091C805F0E0E55F45
S1130930FE4F8081837084518083089583309105B4
S113094051F4E091C805F0E0E55FFE4F80818370CB
S11309508C50808308958230910551F4E091C8054C
S1130960F0E0E55FFE4F80818370885080830895B6
S11309708130910551F4E091C805F0E0E55FFE4F48
S113098080818170845080830895009741F4E091C0
S1130990C805F0E0E55FFE4F8EEF80830895019671
S11309A039F4E091C805F0E0E55FFE4F8FEF8083F6
S11309B00895AFEBB5E0EC91F0E0E55FFE4F808188
S11309C08E7F80831196EC911197F0E0E55FFE4FE6
S11309D080818D7F80831296EC91F0E0E55FFE4F7D
S11309E080818E7F8083089580918705C9DD809101
S11309F00A01E1DDE0918605F0E0ED5EFE4F8081C5
S1130A00BFDDE0918605F0E0E55FFE4F8081D3DD38
S1130A1080918605873018F01092860508958F5FBF
S1130A208093860508950F931F93CF93DF93EC0172
S1130A30009721F0019709F45CC065C0809184059A
S1130A40813009F0BCC184E18093060186E0809383
S1130A5007011092840584E690E090930901809345
S1130A60080117DDEFEBF5E083E0808385E0828306
S1130A7084E08183AFDE9DDF0E948F1087709078C1
S1130A80992324F40197886F9F6F01968093CC0576
S1130A908CE090E09093CB058093CA050E948F1060
S1130AA087709078992324F40197886F9F6F01963B
S1130AB08093C8059091CC05981313C006EC15E0FB
S1130AC0CAECD5E00E948F1087709078992324F4A3
S1130AD00197886F9F6F0196F80182839A81981716
S1130AE089F38FE090E09093C7058093C6057CDE80
S1130AF010C091E080E020918405213009F490E059
S1130B00C92FD82F02C0C0E0D0E0C130D10509F010
S1130B1056C18091080190910901009709F038C1EC
S1130B2080E0C4DC99279093B9058093B80581E0EF
S1130B30BDDC992790939E0580939D058091B8050F
S1130B409091B905833D9105A0F08091C10587304E
S1130B5028F591E090938505EFEBF5E091819F5F97
S1130B6091838F5F828380818F5F808333DE21DF77
S1130B7015C0889798F48091BF05882379F091E097
S1130B8090938505EFEBF5E09181915091839281EB
S1130B9091509283815080831DDE0BDF8091CA05C2
S1130BA09091CB058F3FFFEF9F0744F5809107019C
S1130BB0833060F4EAECF5E022E330E03183208313
S1130BC098E092838150809307011DC08AE090E0F1
S1130BD09093CB058093CA050E948F1087709078FC
S1130BE0992324F40197886F9F6F01968093CC0515
S1130BF08091070181508093070105C0019790936C
S1130C00CB058093CA058091C6059091C7058F3F97
S1130C102FEF92079CF580910701823060F4E6EC97
S1130C20F5E022E330E03183208398E09283815021
S1130C308093070128C0E6ECF5E08AE090E0918318
S1130C4080839091CC058281981312C08F01CAECE5
S1130C50D5E00E948F1087709078992324F401972F
S1130C60886F9F6F0196F80182839A81981789F3A0
S1130C708091070181508093070105C001979093EB
S1130C80C7058093C605B0DD8091CC052091BF05D2
S1130C90821312C04091CA055091CB05452B61F4D3
S1130CA091E09093A30510928405EFEBF5E0318178
S1130CB09281891328C01FC03091C005831311C0CD
S1130CC04091CA055091CB054130510549F491E05A
S1130CD09093A305109284059091C105382F13C0F9
S1130CE0382F9091C10589130EC04091CA055091C7
S1130CF0CB05452B39F491E09093A305109284051C
S1130D00982F01C0982F8091C805281310C04091D6
S1130D10C6055091C705452B51F421E02093A30546
S1130D20109284058917E1F0C1E0D0E026C0831356
S1130D300FC02091C6053091C7052130310541F41B
S1130D4081E08093A30510928405C1E0D0E015C032
S1130D5089130EC08091C6059091C705892B59F45B
S1130D6081E08093A30510928405C0E0D0E005C023
S1130D70C1E0D0E002C0C1E0D0E02091820584E669
S1130D8090E0821B9109909309018093080107C0A8
S1130D9001979093090180930801C1E0D0E024DE1B
S1130DA080910701811103C081E0809383058091C4
S1130DB0A305813021F48FEFE3DB80E0FCDBCE017F
S1130DC0DF91CF911F910F910895E7E2F1E08DE259
S1130DD0808381838283838308959F92AF92BF929D
S1130DE0CF92DF92EF92FF920F931F93CF93DF93F3
S1130DF00E948F10C3E2D1E00F2EF7E2EF2EF1E054
S1130E00FF2EF02D0AE010E00F2EF4E49F2EF02DBB
S1130E100F2EF3E4AF2EF02D0F2EF2E4BF2EF02DA3
S1130E200F2EF1E4CF2EF02D0F2EF3E2DF2EF02D56
S1130E300E948F10B8010E9435108A3011F4D882B4
S1130E4011C08B3011F4C8820DC08C3011F4B882FB
S1130E5009C08D3011F4A88205C08E3011F4988237
S1130E6001C088832196CE15DF0511F7DF91CF915C
S1130E701F910F91FF90EF90DF90CF90BF90AF90B4
S1130E809F900895CF92DF92EF92FF920F931F935A
S1130E90CF93DF93CDB7DEB7E2970FB6F894DEBFFA
S1130EA00FBECDBF8C018230910509F4B9C034F472
S1130EB0009771F0019709F492C036C78430910508
S1130EC009F4F3C00CF4DBC0059709F4DFC22CC7A6
S1130ED080E056DB80E06FDB61ED74E081E05EDA98
S1130EE080B1809580788093AA05803809F057C72F
S1130EF08091A6059091A705892B09F050C780E43D
S1130F0092E49093AF058093AE059093BD058093D2
S1130F10BC0581E08093A50581E090E09093A7054E
S1130F208093A60583E08093220183E090E0909370
S1130F30BB058093BA058091A8059091A9050E94EC
S1130F4092101092C4051092AB0547DF3EDF8CE08F
S1130F50E1E7F1E0DE01119601900D928A95E1F747
S1130F60FE013D9686E2DF011D928A95E9F7BE01F6
S1130F706F5F7F4F81E012DA8CE0F0D903E211E079
S1130F80F8018081805D01DAD80111968C91805D31
S1130F90FCD9F8018281805DF8D9D80113968C912F
S1130FA0805DF3D981E0DAD907E211E0F8018081AC
S1130FB0805DEBD9D80111968C91805DE6D9F8015A
S1130FC08281805DE2D9D80113968C91805DDDD950
S1130FD08EE1C4D980912201805DD7D9BAC68091AF
S1130FE0AE059091AF05009741F481E08093A4058C
S1130FF01092A50505E010E0D2C62091220121112E
S113100009C084E08093C40581E08093840502E0F4
S113101010E0C5C601979093AF058093AE0599C6BD
S11310206DED74E081E0BAD981E098D980918305AF
S11310308130C9F4809106018150809306018111A9
S113104012C010928305809120018F5F809320014C
S113105081E08093A5058093840585E08093C40591
S113106003E010E09CC68091A305813009F097C687
S11310708093A4051092A50505E010E090C662EFE8
S113108074E081E08BD981E069D910927D051092DA
S11310907C0510927E05809120018F5F8093200152
S11310A01092A50504E010E07AC680911F01811119
S11310B0E0C188E280931F0180912101863018F4F9
S11310C08F5F809321010E948F106091210170E055
S11310D0CCD79091BA05890F8093220190E0909328
S11310E0BB058093BA058091AC059091AD0501963E
S11310F09093AD058093AC0580918205823318F0FE
S11311008A50809382050E948F1060912B01709108
S11311102C0197D72091BC053091BD05820F931FF8
S11311209093AF058093AE059093BD058093BC0565
S113113081E08093A505F3D783709078992324F4F4
S113114001978C6F9F6F01968093C405811130C005
S11311503CDE1092AB0541DE8CE0E1E7F1E0DE011C
S1131160119601900D928A95E1F7FE013D9686E273
S1131170DF011D928A95E9F7BE016F5F7F4F81E021
S11311800DD98CE0EBD803E211E0F8018081805D99
S1131190FCD8D80111968C91805DF7D8F801828132
S11311A0805DF3D8D80113968C91805DEED8D1C5BB
S11311B0813009F03EC064D91092A00510929F05B9
S11311C0AED781709078992324F401978E6F9F6F26
S11311D001968093B005811116C08EE1E3EAF1E037
S11311E0DE01119601900D928A95E1F7FE017F963A
S11311F084E1DF011D928A95E9F7BE016F5F7F4F9D
S113120081E0CCD8A6C58AE1E5EDF1E0DE011196D6
S113121001900D928A95E1F7FE017B9688E1DF014A
S11312201D928A95E9F7BE016F5F7F4F81E0B6D8C2
S113123090C5823009F071C02CD910929A05109291
S113124099056DD783709078992324F401978C6F56
S11312509F6F019680939B05811116C08DE0E7E096
S1131260F2E0DE01119601900D928A95E1F7FE01FC
S11312703E9685E2DF011D928A95E9F7BE016F5F14
S11312807F4F81E08BD865C58130B1F48CE0E9E310
S1131290F2E0DE01119601900D928A95E1F7FE01CC
S11312A03D9686E2DF011D928A95E9F7BE016F5FE4
S11312B07F4F81E073D84DC58230B1F48AE0EBE60C
S11312C0F2E0DE01119601900D928A95E1F7FE019C
S11312D03B9688E2DF011D928A95E9F7BE016F5FB4
S11312E07F4F81E05BD835C5833009F032C58CE08F
S11312F0EDE9F2E0DE01119601900D928A95E1F795
S1131300FE013D9686E2DF011D928A95E9F7BE0152
S11313106F5F7F4F81E042D81CC5833009F02BC535
S1131320AFD810928C0510928B0584E690E09093D0
S1131330940580939305F3D663E070E096D680938A
S11313408805811111C010928A05109289050F2E0B
S1131350F3E0CF2ED12CF02D0F2EFAE0EF2EF12C4E
S1131360F02D05E010E02BC0813039F485E090E0E9
S113137090938A0580938905EACF823041F78AE009
S113138090E090938A0580938905E1CFC8D6B60191
S11313906CD680938805811105C010928A0510923D
S11313A089050DC0813029F410938A0500938905BD
S11313B006C0823021F4F0928A05E092890580917A
S11313C0890590918A0520919105309192058217A3
S11313D09307E1F220918805211117C080E1EFEC19
S11313E0F2E0DE01119601900D928A95E1F7FE017B
S11313F0719682E2DF011D928A95E9F7BE016F5F63
S11314007F4F81E00E94CE01A4C485309105B9F4D8
S113141080E1E1E0F3E0DE01119601900D928A95FE
S1131420E1F7FE01719682E2DF011D928A95E9F7E8
S1131430BE016F5F7F4F81E00E94CE018AC40A978C
S113144009F087C480E1E3E3F3E0DE011196019043
S11314500D928A95E1F7FE01719682E2DF011D92F9
S11314608A95E9F7BE016F5F7F4F81E00E94CE014C
S113147070C4853128F466E075E081E00E94CE01F5
S113148080911F01815080931F0189C466E175E03A
S113149081E00E94CE018CE10E94AE018091AC05F6
S11314A0805D0E94C50180B1809580788093AA05F3
S11314B0803809F074C41092AD051092AC051092F6
S11314C0A9051092A80581E0809320011092A4053B
S11314D01092A7051092A6051092A30529EE33E0F9
S11314E08091B5058823E1F31092B50521503109A7
S11314F0B9F700E010E053C49091270180912301D3
S1131500981313C0909128018091240198130DC061
S11315109091290180912501981307C090912A0187
S113152080912601981709F4FCC08091C9058A327C
S113153049F44BDC1092AB058091CD05813009F064
S1131540B8C2EFC0882309F40AC4803339F4E091A7
S1131550AB05F0E0E95DFE4F108259C0813341F4E0
S1131560E091AB05F0E0E95DFE4F81E080834FC080
S1131570823341F4E091AB05F0E0E95DFE4F82E097
S1131580808345C0833341F4E091AB05F0E0E95D2D
S1131590FE4F83E080833BC0843341F4E091AB058C
S11315A0F0E0E95DFE4F84E0808331C0853341F48F
S11315B0E091AB05F0E0E95DFE4F85E0808327C054
S11315C0863341F4E091AB05F0E0E95DFE4F86E03F
S11315D080831DC0873341F4E091AB05F0E0E95D01
S11315E0FE4F87E0808313C0883341F4E091AB055C
S11315F0F0E0E95DFE4F88E0808309C0893339F467
S1131600E091AB05F0E0E95DFE4F89E080838091D5
S1131610AB05833020F48F5F8093AB05A0C383E0D8
S11316208093AB059CC3813009F041C08091A10532
S11316309091A20520911D0130911E0182179307FC
S113164088F44091B00541110DC080919F0590919F
S1131650A00501969093A00580939F05059708F037
S113166060C091C340911B0150911C0184179507E0
S1131670A0F44091B005413081F48217930768F0DB
S113168080919F059091A00501969093A005809369
S11316909F05059708F045C07CC31092A0051092E1
S11316A09F058091CD05813009F03DC23AC082305A
S11316B0B9F490919B0580919C0598130CC080917E
S11316C0990590919A05019690939A0580939905AE
S11316D0059738F54AC310929A051092990545C3A7
S11316E0833009F048C3209191053091920580918F
S11316F0890590918A052817390751F480918B0543
S113170090918C05019690938C0580938B0509C06C
S113171010928C0510928B058091CD05813009F0D3
S1131720ADC2809122018150809322011092CD0597
S1131730F6D483709078992324F401978C6F9F6F6B
S113174001968093C405811138C03FDB1092AB052C
S113175044DB8CE0E1E7F1E0DE01119601900D92AB
S11317608A95E1F7FE013D9686E2DF011D928A9596
S1131770E9F7BE016F5F7F4F81E00E94CE018CE0EC
S11317800E94AE0103E211E0F8018081805D0E94B5
S1131790C501D80111968C91805D0E94C501F801A4
S11317A08281805D0E94C501D80113968C91805D71
S11317B00E94C50101E010E0F2C2813009F045C089
S11317C00E9440021092A00510929F05A8D4817037
S11317D09078992324F401978E6F9F6F01968093DC
S11317E0B005811119C08AE1E5E6F3E0DE01119646
S11317F001900D928A95E1F7FE017B9688E1DF0165
S11318001D928A95E9F7BE016F5F7F4F81E00E94C8
S1131810CE0101E010E0C3C28FE1E7E9F3E0DE01AD
S1131820119601900D928A95E1F7FE01B09683E13D
S1131830DF011D928A95E9F7BE016F5F7F4F81E05A
S11318400E94CE0101E010E0AAC2823009F07EC0FD
S11318500E94490210929A051092990560D48370EF
S11318609078992324F401978C6F9F6F019680934D
S11318709B05811119C08DE0E7E0F2E0DE011196CD
S113188001900D928A95E1F7FE013E9685E2DF0113
S11318901D928A95E9F7BE016F5F7F4F81E00E9438
S11318A0CE0101E010E07BC28130C9F48CE0E9E3B1
S11318B0F2E0DE01119601900D928A95E1F7FE01A6
S11318C03D9686E2DF011D928A95E9F7BE016F5FBE
S11318D07F4F81E00E94CE0101E010E060C28230BF
S11318E0C9F48AE0EBE6F2E0DE01119601900D9274
S11318F08A95E1F7FE013B9688E2DF011D928A9505
S1131900E9F7BE016F5F7F4F81E00E94CE0101E0E5
S113191010E045C2833009F00AC28CE0EDE9F2E040
S1131920DE01119601900D928A95E1F7FE013D9634
S113193086E2DF011D928A95E9F7BE016F5F7F4F52
S113194081E00E94CE0101E010E029C2833009F059
S1131950F1C10E94400210928C0510928B0584E61E
S113196090E09093940580939305D9D363E070E05D
S11319707CD380938805811111C010928A0510923E
S1131980890503E010E00F2EFAE0CF2ED12CF02DC4
S11319900F2EF5E0EF2EF12CF02D2BC0813039F411
S11319A085E090E090938A0580938905EACF8230A0
S11319B041F78AE090E090938A0580938905E1CF0E
S11319C0AED3B80152D380938805811105C010921B
S11319D08A05109289050DC0813029F4F0928A0598
S11319E0E092890506C0823021F4D0928A05C09223
S11319F089058091890590918A05209191053091FE
S1131A00920582179307E1F220918805211119C0EC
S1131A1087E1E9ECF3E0DE01119601900D928A95DD
S1131A20E1F7FE0178968BE1DF011D928A95E9F7D3
S1131A30BE016F5F7F4F81E00E94CE0101E010E0A4
S1131A40AEC185309105C9F487E1EBEFF3E0DE0127
S1131A50119601900D928A95E1F7FE0178968BE13B
S1131A60DF011D928A95E9F7BE016F5F7F4F81E028
S1131A700E94CE0101E010E092C10A9709F05DC115
S1131A8087E1EDE2F4E0DE01119601900D928A9572
S1131A90E1F7FE0178968BE1DF011D928A95E9F763
S1131AA0BE016F5F7F4F81E00E94CE0101E010E034
S1131AB076C18091C405811134C08CE0E1E7F1E086
S1131AC0DE01119601900D928A95E1F7FE013D9693
S1131AD086E2DF011D928A95E9F7BE016F5F7F4FB1
S1131AE081E00E94CE018CE00E94AE0103E211E08D
S1131AF0F8018081805D0E94C501D80111968C9106
S1131B00805D0E94C501F8018281805D0E94C5014B
S1131B10D80113968C91805D0E94C50101E010E00C
S1131B203EC18130B1F58091B005811119C088E1C1
S1131B30EFE5F4E0DE01119601900D928A95E1F74C
S1131B40FE0179968AE1DF011D928A95E9F7BE01CB
S1131B506F5F7F4F81E00E94CE0101E010E01FC162
S1131B608EE1E1E9F4E0DE01119601900D928A958F
S1131B70E1F7FE017F9684E1DF011D928A95E9F782
S1131B80BE016F5F7F4F81E00E94CE0101E010E053
S1131B9006C1823009F06FC080919B05811119C084
S1131BA08DE0E7E0F2E0DE01119601900D928A9556
S1131BB0E1F7FE013E9685E2DF011D928A95E9F781
S1131BC0BE016F5F7F4F81E00E94CE0101E010E013
S1131BD0E6C08130C9F48CE0E9E3F2E0DE0111965D
S1131BE001900D928A95E1F7FE013D9686E2DF01B0
S1131BF01D928A95E9F7BE016F5F7F4F81E00E94D5
S1131C00CE0101E010E0CBC08230C9F48AE0EBE6FB
S1131C10F2E0DE01119601900D928A95E1F7FE0142
S1131C203B9688E2DF011D928A95E9F7BE016F5F5A
S1131C307F4F81E00E94CE0101E010E0B0C083300C
S1131C4009F07EC08CE0EDE9F2E0DE01119601902E
S1131C500D928A95E1F7FE013D9686E2DF011D9221
S1131C608A95E9F7BE016F5F7F4F81E00E94CE0144
S1131C7001E010E094C0833009F065C080918905CB
S1131C8090918A050097C9F487E1E9ECF3E0DE015D
S1131C90119601900D928A95E1F7FE0178968BE1F9
S1131CA0DF011D928A95E9F7BE016F5F7F4F81E0E6
S1131CB00E94CE0101E010E072C085309105C9F4A4
S1131CC087E1EBEFF3E0DE01119601900D928A9526
S1131CD0E1F7FE0178968BE1DF011D928A95E9F721
S1131CE0BE016F5F7F4F81E00E94CE0101E010E0F2
S1131CF056C00A9759F587E1EDE2F4E0DE0111964A
S1131D0001900D928A95E1F7FE0178968BE1DF014F
S1131D101D928A95E9F7BE016F5F7F4F81E00E94B3
S1131D20CE0101E010E03BC000E010E038C001E06B
S1131D3010E035C001E010E032C001E010E02FC037
S1131D4001E010E02CC001E010E029C001E010E047
S1131D5026C08091C405882309F4CECB64CC80913D
S1131D60CD05813009F4DDCCA8CE8091CD0581303C
S1131D7009F012CFD6CC8091CD05813009F4D1CCB5
S1131D8001E010E00CC08091CD05813009F0CFCE88
S1131D90C8CC8091CD05813009F0E2CEC2CCC80117
S1131DA0E2960FB6F894DEBF0FBECDBFDF91CF91A0
S1131DB01F910F91FF90EF90DF90CF900895CF93F4
S1131DC0DF93CDB7DEB72E970FB6F894DEBF0FBE04
S1131DD0CDBF8CE081B983EF82B980EF87B98FE002
S1131DE088B98FEF8AB91BB884B915B88EE0E3ECD3
S1131DF0F4E0DE01119601900D928A95E1F7E0E797
S1131E00F5E0108244E650E060E070E041835283E4
S1131E1063837483458356836783708782E497E082
S1131E2092878187E5E6F5E0108281E090E0A0E00A
S1131E30B0E081839283A383B48385839683A7834D
S1131E40B08725E332E032872187EAE5F5E01082A6
S1131E504183528363837483458356836783708786
S1131E602AE031E032872187EFE4F5E010824183F4
S1131E7052836383748345835683678370872AE61A
S1131E8032E032872187E4E4F5E010828183928393
S1131E90A383B48385839683A783B08726E630E043
S1131EA032872187E9E3F5E0108281839283A3835B
S1131EB0B48385839683A783B08723E135E0328793
S1131EC02187EEE2F5E0108281839283A383B483B9
S1131ED085839683A783B0878CEF92E0928781876E
S1131EE00E9440020E94B60161E070E080E090E050
S1131EF00E941E010E942F018091A505813009F0E6
S1131F0059C0E091C405F0E03196EE0FFF1F81E067
S1131F1090E08C0F9D1FE80FF91F00811181D801FB
S1131F2015964D915D916D917C91189711968D91B7
S1131F309D910D90BC91A02D481759076A077B0706
S1131F40F1F4F80180810184F285E02D082E000C63
S1131F50990B0995D8018C93E091C405F0E0319672
S1131F60EE0FFF1F81E090E08C0F9D1FE80FF91F1B
S1131F700190F081E02D1582168217821086E0917F
S1131F80C405F0E03196EE0FFF1FA1E0B0E0AC0F06
S1131F90BD1FEA0FFB1F0190F081E02D8581968122
S1131FA0A781B0850196A11DB11D85839683A78362
S1131FB0B08709C08091A8059091A90501969093D6
S1131FC0A9058093A80509811A81F80145815681E4
S1131FD06781708581819281A381B48148175907F3
S1131FE06A077B0779F480810184F285E02D082E4D
S1131FF0000C990B0995D8018C93F801158216826F
S113200017821086F80185819681A781B085019693
S1132010A11DB11D85839683A783B0878091A505F3
S1132020813041F48EE10E94AE0180912201805DF5
S11320300E94C5018091B5058823E1F31092B5058E
S11320405BCFAA1BBB1B51E107C0AA1FBB1FA6176E
S1132050B70710F0A61BB70B881F991F5A95A9F74D
S113206080959095BC01CD01089597FB072E16F439
S1132070009406D077FD08D0E4DF07FC05D03EF4D9
S1132080909581959F4F0895709561957F4F089520
S11320908F929F92AF92BF92CF92DF92EF92FF9274
S11320A0CF93DF93EC01688179818A819B816115EB
S11320B071058105910521F464E279ED8BE597E0E2
S11320C02DE133EF41E050E038D049015A019B0142
S11320D0AC01A7EAB1E44DD06B017C01ACEEB4EFE6
S11320E0A501940152D0DC01CB018C0D9D1DAE1DC8
S11320F0BF1DB7FF03C00197A109B0488883998326
S1132100AA83BB839F77DF91CF91FF90EF90DF90FD
S1132110CF90BF90AF909F908F900895B9CF80E0FB
S113212091E0B6CFA0E0B0E080930001909301016C
S1132130A0930201B09303010895052E97FB16F4B2
S113214000940FD057FD05D024D007FC02D046F4EC
S113215008C050954095309521953F4F4F4F5F4FA4
S1132160089590958095709561957F4F8F4F9F4FFF
S1132170089531D0A59F900DB49F900DA49F800D1C
S1132180911D11240895B7FFF4CFF3DF821B930B45
S11321900895A1E21A2EAA1BBB1BFD010DC0AA1FA4
S11321A0BB1FEE1FFF1FA217B307E407F50720F0BC
S11321B0A21BB30BE40BF50B661F771F881F991F37
S11321C01A9469F760957095809590959B01AC0180
S11321D0BD01CF010895A29FB001B39FC001A39F89
S11321E0700D811D1124911DB29F700D811D11244C
S10B21F0911D0895F894FFCF3E
S11321F801000000C80014066400FFFFFFFFFFFF92
S1132208FFFFFF80402010080402019600280028E0
S11322180101012D2D2D2D2D2D2D2D6400FFFFFFE6
S1132228E7E7FFFFFF8040201008040201FFFFC317
S1132238DBDBC3FFFF8040201008040201FF81BDDF
S1132248BDBDBD81FF8040201008040201007E7ED0
S11322587E7E7E7E0080402010080402010100007A
S113226800456E74657220636F64653A000000006F
S11322780000000000000000000000000000000052
S11322880000000000000000000000000000000042
S11322980000005072657373206C696768746C7908
S11322A8206F6E20746865207765696768742E20CE
S11322B80000000000000000000000000000000012
S11322C80000000000507265737320686172642016
S11322D86F6E20746865207765696768742E0000DE
S11322E800000000000000000000000000000000E2
S11322F8000000000000005374656572205269678D
S113230868742E00000000000000000000000000B7
S113231800000000000000000000000000000000B1
S11323280000000000000000005374656572204C32
S11323386566742E00000000000000000000000024
S11323480000000000000000000000000000000081
S1132358000000000000000000000053746565726E
S11323682055702E0000000000000000000000004E
S11323780000000000000000000000000000000051
S11323880000000000000000000000000053746515
S1132398657220446F776E2E000000000000000074
S11323A80000000000000000000000000000000021
S11323B800000000000000000000000000000054BD
S11323C875726E206B6E6F6220746F20312E000060
S11323D800000000000000000000000000000000F1
S11323E800000000000000000000000000000000E1
S11323F8005475726E206B6E6F6220746F20322EDB
S113240800000000000000000000000000000000C0
S113241800000000000000000000000000000000B0
S11324280000005475726E206B6E6F6220746F200A
S1132438332E00000000000000000000000000002F
S11324480000000000000000000000000000000080
S11324580000000000507265737320616363656C4B
S113246865726174696F6E20686172642E20000061
S11324780000000000000000000000000000000050
S113248800000000000000507265737320616363EC
S1132498656C65726174696F6E206D6F64657261D5
S11324A874656C792E000000000000000000000034
S11324B8000000000000000000536869656C642097
S11324C867656E657261746F7220746F20312E00B7
S11324D800000000000000000000000000000000F0
S11324E80000000000000000000000536869656CEB
S11324F8642067656E657261746F7220746F203230
S11325082E00000000000000000000000000000091
S1132518000000000000000000000000005368698B
S1132528656C642067656E657261746F7220746F80
S113253820332E000000000000000000000000000E
S1132548000000000000000000000000000000502F
S11325587265737320616363656C65726174696F16
S11325686E20686172640000000000000000000032
S1132578000000000000000000000000000000004F
S113258800507265737320616363656C657261746E
S1132598696F6E206D6F6465726174656C79000093
S11325A8000000000000000000000000000000001F
S11325B8000000700565055A054F05440539052EC8
S11325C8055370616365205465616D2100446F642F
S11325D86765207468652061737465726F696473D4
S11325E8210048697420746865206879706572648C
S11325F87269766521004C4556454C20434F4D5031
S11326084C455445210047414D45204F5645522ECF
S111261820596F75722073636F72653A00006B
S9030000FC
